{
  "_format": "hh-sol-artifact-1",
  "contractName": "BloodDonation",
  "sourceName": "contracts/BloodDonation.sol",
  "abi": [
    {
      "anonymous": false,
      "inputs": [
        {
          "indexed": true,
          "internalType": "uint256",
          "name": "donationId",
          "type": "uint256"
        },
        {
          "indexed": true,
          "internalType": "uint256",
          "name": "donorId",
          "type": "uint256"
        },
        {
          "indexed": false,
          "internalType": "string",
          "name": "donorName",
          "type": "string"
        },
        {
          "indexed": false,
          "internalType": "string",
          "name": "bloodGroup",
          "type": "string"
        },
        {
          "indexed": false,
          "internalType": "string",
          "name": "donationDate",
          "type": "string"
        },
        {
          "indexed": false,
          "internalType": "string",
          "name": "location",
          "type": "string"
        },
        {
          "indexed": false,
          "internalType": "bool",
          "name": "isUrgent",
          "type": "bool"
        },
        {
          "indexed": false,
          "internalType": "uint256",
          "name": "units",
          "type": "uint256"
        }
      ],
      "name": "DonationRecorded",
      "type": "event"
    },
    {
      "inputs": [],
      "name": "donationCount",
      "outputs": [
        {
          "internalType": "uint256",
          "name": "",
          "type": "uint256"
        }
      ],
      "stateMutability": "view",
      "type": "function"
    },
    {
      "inputs": [
        {
          "internalType": "uint256",
          "name": "",
          "type": "uint256"
        }
      ],
      "name": "donations",
      "outputs": [
        {
          "internalType": "uint256",
          "name": "donorId",
          "type": "uint256"
        },
        {
          "internalType": "string",
          "name": "donorName",
          "type": "string"
        },
        {
          "internalType": "string",
          "name": "bloodGroup",
          "type": "string"
        },
        {
          "internalType": "string",
          "name": "donationDate",
          "type": "string"
        },
        {
          "internalType": "string",
          "name": "location",
          "type": "string"
        },
        {
          "internalType": "bool",
          "name": "isUrgent",
          "type": "bool"
        },
        {
          "internalType": "uint256",
          "name": "units",
          "type": "uint256"
        }
      ],
      "stateMutability": "view",
      "type": "function"
    },
    {
      "inputs": [],
      "name": "getDonations",
      "outputs": [
        {
          "components": [
            {
              "internalType": "uint256",
              "name": "donorId",
              "type": "uint256"
            },
            {
              "internalType": "string",
              "name": "donorName",
              "type": "string"
            },
            {
              "internalType": "string",
              "name": "bloodGroup",
              "type": "string"
            },
            {
              "internalType": "string",
              "name": "donationDate",
              "type": "string"
            },
            {
              "internalType": "string",
              "name": "location",
              "type": "string"
            },
            {
              "internalType": "bool",
              "name": "isUrgent",
              "type": "bool"
            },
            {
              "internalType": "uint256",
              "name": "units",
              "type": "uint256"
            }
          ],
          "internalType": "struct BloodDonation.Donation[]",
          "name": "",
          "type": "tuple[]"
        }
      ],
      "stateMutability": "view",
      "type": "function"
    },
    {
      "inputs": [
        {
          "internalType": "uint256",
          "name": "donorId",
          "type": "uint256"
        }
      ],
      "name": "getDonationsForDonor",
      "outputs": [
        {
          "components": [
            {
              "internalType": "uint256",
              "name": "donorId",
              "type": "uint256"
            },
            {
              "internalType": "string",
              "name": "donorName",
              "type": "string"
            },
            {
              "internalType": "string",
              "name": "bloodGroup",
              "type": "string"
            },
            {
              "internalType": "string",
              "name": "donationDate",
              "type": "string"
            },
            {
              "internalType": "string",
              "name": "location",
              "type": "string"
            },
            {
              "internalType": "bool",
              "name": "isUrgent",
              "type": "bool"
            },
            {
              "internalType": "uint256",
              "name": "units",
              "type": "uint256"
            }
          ],
          "internalType": "struct BloodDonation.Donation[]",
          "name": "",
          "type": "tuple[]"
        }
      ],
      "stateMutability": "view",
      "type": "function"
    },
    {
      "inputs": [
        {
          "internalType": "uint256",
          "name": "donorId",
          "type": "uint256"
        },
        {
          "internalType": "string",
          "name": "donorName",
          "type": "string"
        },
        {
          "internalType": "string",
          "name": "bloodGroup",
          "type": "string"
        },
        {
          "internalType": "string",
          "name": "donationDate",
          "type": "string"
        },
        {
          "internalType": "string",
          "name": "location",
          "type": "string"
        },
        {
          "internalType": "bool",
          "name": "isUrgent",
          "type": "bool"
        },
        {
          "internalType": "uint256",
          "name": "units",
          "type": "uint256"
        }
      ],
      "name": "recordDonation",
      "outputs": [],
      "stateMutability": "nonpayable",
      "type": "function"
    }
  ],
  "bytecode": "0x608060405234801561001057600080fd5b5061182e806100206000396000f3fe608060405234801561001057600080fd5b50600436106100575760003560e01c80632abfab4d1461005c5780632fcfb7791461007a578063d091ff8e146100aa578063e25f8416146100c6578063f8626af8146100e4575b600080fd5b61006461011a565b6040516100719190610dec565b60405180910390f35b610094600480360381019061008f9190610e47565b610120565b6040516100a191906110aa565b60405180910390f35b6100c460048036038101906100bf919061122d565b6104d9565b005b6100ce61073d565b6040516100db91906110aa565b60405180910390f35b6100fe60048036038101906100f99190610e47565b610a82565b6040516101119796959493929190611398565b60405180910390f35b60015481565b6060600080600190505b6001548111610172578360008083815260200190815260200160002060000154141561015f57818061015b90611452565b9250505b808061016a90611452565b91505061012a565b5060008167ffffffffffffffff81111561018f5761018e6110d6565b5b6040519080825280602002602001820160405280156101c857816020015b6101b5610cf1565b8152602001906001900390816101ad5790505b509050600080600190505b60015481116104cd57856000808381526020019081526020016000206000015414156104ba576000808281526020019081526020016000206040518060e001604052908160008201548152602001600182018054610230906114ca565b80601f016020809104026020016040519081016040528092919081815260200182805461025c906114ca565b80156102a95780601f1061027e576101008083540402835291602001916102a9565b820191906000526020600020905b81548152906001019060200180831161028c57829003601f168201915b505050505081526020016002820180546102c2906114ca565b80601f01602080910402602001604051908101604052809291908181526020018280546102ee906114ca565b801561033b5780601f106103105761010080835404028352916020019161033b565b820191906000526020600020905b81548152906001019060200180831161031e57829003601f168201915b50505050508152602001600382018054610354906114ca565b80601f0160208091040260200160405190810160405280929190818152602001828054610380906114ca565b80156103cd5780601f106103a2576101008083540402835291602001916103cd565b820191906000526020600020905b8154815290600101906020018083116103b057829003601f168201915b505050505081526020016004820180546103e6906114ca565b80601f0160208091040260200160405190810160405280929190818152602001828054610412906114ca565b801561045f5780601f106104345761010080835404028352916020019161045f565b820191906000526020600020905b81548152906001019060200180831161044257829003601f168201915b505050505081526020016005820160009054906101000a900460ff161515151581526020016006820154815250508383815181106104a05761049f6114fc565b5b602002602001018190525081806104b690611452565b9250505b80806104c590611452565b9150506101d3565b50819350505050919050565b6000871161051c576040517f08c379a000000000000000000000000000000000000000000000000000000000815260040161051390611577565b60405180910390fd5b6000865111610560576040517f08c379a0000000000000000000000000000000000000000000000000000000008152600401610557906115e3565b60405180910390fd5b60008551116105a4576040517f08c379a000000000000000000000000000000000000000000000000000000000815260040161059b9061164f565b60405180910390fd5b60008451116105e8576040517f08c379a00000000000000000000000000000000000000000000000000000000081526004016105df906116bb565b60405180910390fd5b600083511161062c576040517f08c379a000000000000000000000000000000000000000000000000000000000815260040161062390611727565b60405180910390fd5b6001600081548092919061063f90611452565b91905055506000806000600154815260200190815260200160002090508781600001819055508681600101908051906020019061067d929190610d30565b5085816002019080519060200190610696929190610d30565b50848160030190805190602001906106af929190610d30565b50838160040190805190602001906106c8929190610d30565b50828160050160006101000a81548160ff021916908315150217905550818160060181905550876001547f1493ee4c10f6615dc1f7b46bd4a2b54989e1b8992c7db929abb79174b41200f489898989898960405161072b96959493929190611747565b60405180910390a35050505050505050565b6060600060015467ffffffffffffffff81111561075d5761075c6110d6565b5b60405190808252806020026020018201604052801561079657816020015b610783610cf1565b81526020019060019003908161077b5790505b5090506000600190505b6001548111610a7a576000808281526020019081526020016000206040518060e0016040529081600082015481526020016001820180546107e0906114ca565b80601f016020809104026020016040519081016040528092919081815260200182805461080c906114ca565b80156108595780601f1061082e57610100808354040283529160200191610859565b820191906000526020600020905b81548152906001019060200180831161083c57829003601f168201915b50505050508152602001600282018054610872906114ca565b80601f016020809104026020016040519081016040528092919081815260200182805461089e906114ca565b80156108eb5780601f106108c0576101008083540402835291602001916108eb565b820191906000526020600020905b8154815290600101906020018083116108ce57829003601f168201915b50505050508152602001600382018054610904906114ca565b80601f0160208091040260200160405190810160405280929190818152602001828054610930906114ca565b801561097d5780601f106109525761010080835404028352916020019161097d565b820191906000526020600020905b81548152906001019060200180831161096057829003601f168201915b50505050508152602001600482018054610996906114ca565b80601f01602080910402602001604051908101604052809291908181526020018280546109c2906114ca565b8015610a0f5780601f106109e457610100808354040283529160200191610a0f565b820191906000526020600020905b8154815290600101906020018083116109f257829003601f168201915b505050505081526020016005820160009054906101000a900460ff1615151515815260200160068201548152505082600183610a4b91906117c4565b81518110610a5c57610a5b6114fc565b5b60200260200101819052508080610a7290611452565b9150506107a0565b508091505090565b6000602052806000526040600020600091509050806000015490806001018054610aab906114ca565b80601f0160208091040260200160405190810160405280929190818152602001828054610ad7906114ca565b8015610b245780601f10610af957610100808354040283529160200191610b24565b820191906000526020600020905b815481529060010190602001808311610b0757829003601f168201915b505050505090806002018054610b39906114ca565b80601f0160208091040260200160405190810160405280929190818152602001828054610b65906114ca565b8015610bb25780601f10610b8757610100808354040283529160200191610bb2565b820191906000526020600020905b815481529060010190602001808311610b9557829003601f168201915b505050505090806003018054610bc7906114ca565b80601f0160208091040260200160405190810160405280929190818152602001828054610bf3906114ca565b8015610c405780601f10610c1557610100808354040283529160200191610c40565b820191906000526020600020905b815481529060010190602001808311610c2357829003601f168201915b505050505090806004018054610c55906114ca565b80601f0160208091040260200160405190810160405280929190818152602001828054610c81906114ca565b8015610cce5780601f10610ca357610100808354040283529160200191610cce565b820191906000526020600020905b815481529060010190602001808311610cb157829003601f168201915b5050505050908060050160009054906101000a900460ff16908060060154905087565b6040518060e001604052806000815260200160608152602001606081526020016060815260200160608152602001600015158152602001600081525090565b828054610d3c906114ca565b90600052602060002090601f016020900481019282610d5e5760008555610da5565b82601f10610d7757805160ff1916838001178555610da5565b82800160010185558215610da5579182015b82811115610da4578251825591602001919060010190610d89565b5b509050610db29190610db6565b5090565b5b80821115610dcf576000816000905550600101610db7565b5090565b6000819050919050565b610de681610dd3565b82525050565b6000602082019050610e016000830184610ddd565b92915050565b6000604051905090565b600080fd5b600080fd5b610e2481610dd3565b8114610e2f57600080fd5b50565b600081359050610e4181610e1b565b92915050565b600060208284031215610e5d57610e5c610e11565b5b6000610e6b84828501610e32565b91505092915050565b600081519050919050565b600082825260208201905092915050565b6000819050602082019050919050565b610ea981610dd3565b82525050565b600081519050919050565b600082825260208201905092915050565b60005b83811015610ee9578082015181840152602081019050610ece565b83811115610ef8576000848401525b50505050565b6000601f19601f8301169050919050565b6000610f1a82610eaf565b610f248185610eba565b9350610f34818560208601610ecb565b610f3d81610efe565b840191505092915050565b60008115159050919050565b610f5d81610f48565b82525050565b600060e083016000830151610f7b6000860182610ea0565b5060208301518482036020860152610f938282610f0f565b91505060408301518482036040860152610fad8282610f0f565b91505060608301518482036060860152610fc78282610f0f565b91505060808301518482036080860152610fe18282610f0f565b91505060a0830151610ff660a0860182610f54565b5060c083015161100960c0860182610ea0565b508091505092915050565b60006110208383610f63565b905092915050565b6000602082019050919050565b600061104082610e74565b61104a8185610e7f565b93508360208202850161105c85610e90565b8060005b8581101561109857848403895281516110798582611014565b945061108483611028565b925060208a01995050600181019050611060565b50829750879550505050505092915050565b600060208201905081810360008301526110c48184611035565b905092915050565b600080fd5b600080fd5b7f4e487b7100000000000000000000000000000000000000000000000000000000600052604160045260246000fd5b61110e82610efe565b810181811067ffffffffffffffff8211171561112d5761112c6110d6565b5b80604052505050565b6000611140610e07565b905061114c8282611105565b919050565b600067ffffffffffffffff82111561116c5761116b6110d6565b5b61117582610efe565b9050602081019050919050565b82818337600083830152505050565b60006111a461119f84611151565b611136565b9050828152602081018484840111156111c0576111bf6110d1565b5b6111cb848285611182565b509392505050565b600082601f8301126111e8576111e76110cc565b5b81356111f8848260208601611191565b91505092915050565b61120a81610f48565b811461121557600080fd5b50565b60008135905061122781611201565b92915050565b600080600080600080600060e0888a03121561124c5761124b610e11565b5b600061125a8a828b01610e32565b975050602088013567ffffffffffffffff81111561127b5761127a610e16565b5b6112878a828b016111d3565b965050604088013567ffffffffffffffff8111156112a8576112a7610e16565b5b6112b48a828b016111d3565b955050606088013567ffffffffffffffff8111156112d5576112d4610e16565b5b6112e18a828b016111d3565b945050608088013567ffffffffffffffff81111561130257611301610e16565b5b61130e8a828b016111d3565b93505060a061131f8a828b01611218565b92505060c06113308a828b01610e32565b91505092959891949750929550565b600082825260208201905092915050565b600061135b82610eaf565b611365818561133f565b9350611375818560208601610ecb565b61137e81610efe565b840191505092915050565b61139281610f48565b82525050565b600060e0820190506113ad600083018a610ddd565b81810360208301526113bf8189611350565b905081810360408301526113d38188611350565b905081810360608301526113e78187611350565b905081810360808301526113fb8186611350565b905061140a60a0830185611389565b61141760c0830184610ddd565b98975050505050505050565b7f4e487b7100000000000000000000000000000000000000000000000000000000600052601160045260246000fd5b600061145d82610dd3565b91507fffffffffffffffffffffffffffffffffffffffffffffffffffffffffffffffff8214156114905761148f611423565b5b600182019050919050565b7f4e487b7100000000000000000000000000000000000000000000000000000000600052602260045260246000fd5b600060028204905060018216806114e257607f821691505b602082108114156114f6576114f561149b565b5b50919050565b7f4e487b7100000000000000000000000000000000000000000000000000000000600052603260045260246000fd5b7f496e76616c696420646f6e6f7220494400000000000000000000000000000000600082015250565b600061156160108361133f565b915061156c8261152b565b602082019050919050565b6000602082019050818103600083015261159081611554565b9050919050565b7f496e76616c696420646f6e6f72206e616d650000000000000000000000000000600082015250565b60006115cd60128361133f565b91506115d882611597565b602082019050919050565b600060208201905081810360008301526115fc816115c0565b9050919050565b7f496e76616c696420626c6f6f642067726f757000000000000000000000000000600082015250565b600061163960138361133f565b915061164482611603565b602082019050919050565b600060208201905081810360008301526116688161162c565b9050919050565b7f496e76616c696420646f6e6174696f6e20646174650000000000000000000000600082015250565b60006116a560158361133f565b91506116b08261166f565b602082019050919050565b600060208201905081810360008301526116d481611698565b9050919050565b7f496e76616c6964206c6f636174696f6e00000000000000000000000000000000600082015250565b600061171160108361133f565b915061171c826116db565b602082019050919050565b6000602082019050818103600083015261174081611704565b9050919050565b600060c08201905081810360008301526117618189611350565b905081810360208301526117758188611350565b905081810360408301526117898187611350565b9050818103606083015261179d8186611350565b90506117ac6080830185611389565b6117b960a0830184610ddd565b979650505050505050565b60006117cf82610dd3565b91506117da83610dd3565b9250828210156117ed576117ec611423565b5b82820390509291505056fea2646970667358221220867fb4cfa9195c61b35740307a38112068425dae73fbd568ff5a9259460f4b4364736f6c63430008090033",
  "linkReferences": {},
  "deployedLinkReferences": {}
}